S02600006C6162305F61696B5F72613864315F6164635F7573625F70726F6A6563742E7372656386
S3150200000070520122395F0002455D0002355F00022F
S31502000010355F0002355F0002355F0002355F000280
S31502000020000000000000000000000000355F000232
S31502000030355F000200000000355F0002355F0002F6
S31502000040A1230002D92300020D240002312400025A
S31502000050552400028D240002B12400023954000204
S315020000600000000000000000000000000000000088
S315020000700000000000000000000000000000000078
S315020000800000000000000000000000000000000068
S315020000900000000000000000000000000000000058
S315020000A00000000000000000000000000000000048
S315020000B00000000000000000000000000000000038
S315020000C00000000000000000000000000000000028
S315020000D00000000000000000000000000000000018
S315020000E00000000000000000000000000000000008
S315020000F000000000000000000000000000000000F8
S3150200010000000000000000000000000000000000E7
S3150200011000000000000000000000000000000000D7
S3150200012000000000000000000000000000000000C7
S3150200013000000000000000000000000000000000B7
S3150200014000000000000000000000000000000000A7
S315020001500000000000000000000000000000000097
S315020001600000000000000000000000000000000087
S315020001700000000000000000000000000000000077
S315020001800000000000000000000000000000000067
S315020001900000000000000000000000000000000057
S315020001A00000000000000000000000000000000047
S315020001B00000000000000000000000000000000037
S315020001C00348044B834202D0034B03B118477047DE
S315020001D0380200223802002200000000064B0749BE
S315020001E0C91A891048BF0131491003D0044B0BB11B
S315020001F001481847704700BF380200223802002221
S315020002000000000010B5064C237843B9FFF7D8FF6B
S31502000210044B13B10448AFF300800123237010BDD1
S3150200022068020022000000006469000208B5054B5E
S315020002301BB105490548AFF30080BDE80840FFF74A
S31502000240CDBF00BF000000006C02002264690002FC
S315020002502DE9F0410446D0E902854068A8EB05077E
S3150200026097422844154408D80E463A46A5EB080597
S3150200027005F06EFF2A466068F11905F069FFBFF3C3
S315020002805F8FE560BDE8F0812DE9F8434FF0000984
S31502000290064688461746D0E902243369151B9C4256
S315020002A003F1FF3125BF03F1FF339B180B1B1B1B09
S315020002B0BD4228BF3D469D4228BF1D467068414645
S315020002C02A46204405F044FFB2682C44A24208BFE5
S315020002D00024A944A8447F1BBFF35F8FF460002F5C
S315020002E0DBD14846BDE8F883F8B5154CA8220021B3
S315020002F0204605F025FF4FF48066002303201022D6
S315020003001049114F114D20616061A161E7612662BA
S31502000310A3626362E36221666566A2662367E36699
S315020003206367BFF35F8F0A4B42F001E01846C21AB9
S3150200033013F9011DA1540FF007C0BFF35F8FF8BD7B
S3150200034098060022D4610002980200228802002246
S315020003505063000270B51D4D441C00EB400005EBD6
S31502000360C00304EB440405EBC400DC6A8C46012C92
S31502000370164612D0022C0CD0FCB99A6A596A8A42E5
S315020003809CBF1B6AD218013A511A8E4218D92046CE
S3150200039070BDBDE87040FFF777BF9A6A5C6AA242F9
S315020003A09CBF1B6AD218013A141BB44228BF3446BA
S315020003B02246FFF74DFF204670BD0024204670BD41
S315020003C032466146FFF744FF3446E0E798060022CC
S315020003D0F8B50B4B04461B780D46532B164601D037
S315020003E0FFF782FFEFF311874FF0200181F31188A7
S315020003F0324629462046FFF7ADFF87F31188F8BD3E
S315020004009806002210B50446D0E90132501C9842E3
S3150200041007D8236899540246E16863680131C4E942
S3150200042002019A4200D010BD21682069FFF7D0FF71
S31502000430A368984215BF4FF0FF330023E360A36021
S3150200044010BD00BF2DE9F84F91428A46DDE90A84C4
S31502000450154683461E466AD30B460127B3FBF5F3C0
S315020004609D4207F10107F9D9B74238BF374614F062
S31502000470010902D1B8F1000F40D1DBF80C30002B94
S315020004802CDB0124002E14BF3346234601E005FB74
S3150200049004F4013BFBD1BAFBF4F39D4205D805FBFC
S315020004A004F4BAFBF4F39D42F9D9224E06E0AC42BB
S315020004B0B4FBF5F30CD31C46BAFBF3F3F1565846DC
S315020004C004FB13AAFFF79EFFDBF80C30002BEEDAD3
S315020004D0B9F1000F02D0B8F1000F09D1BDE8F88FCB
S315020004E020215846FFF78EFFDBF80C30002BF5DB98
S315020004F0B84508F1FF38F3D8BDE8F88FA30711D441
S3150200050020240CE021465846FFF77CFFDBF80C302E
S3150200051008F1FF38002BE1DBB8F1000FAFD0B84588
S31502000520F0D8AAE7002E0CBF30242024F7E70127D3
S315020005309AE700BF586300022DE9F04F00234025D9
S315020005409BB00DF1280A81460C461746CDE90553A4
S31502000550CDE90730CDF810A006E004A8FFF752FF58
S31502000560079B002BC0F2AD8014F9011B002900F095
S31502000570A0802529F1D10026234613F9012BA2F1E9
S3150200058023010D2908D8DFE801F07F0707070707CF
S3150200059007077B0783070777A2F13001C9B209294A
S315020005A04FF000050FD805EB850502EB450593F9DB
S315020005B000201C46A2F13001C9B20929A5F1300575
S315020005C003F10103EFD92E2A00F0FF804FF0000B52
S315020005D094F9001021F0040068281C465CD02529F5
S315020005E0BBD05839CBB2202BBAD82029B8D801A310
S315020005F053F821F0CB0600026105000261050002F4
S315020006006105000261050002610500026105000242
S315020006106105000261050002610500026105000232
S31502000620B70700024D0700026105000261050002DC
S315020006306105000261050002610500026105000212
S315020006406105000261050002610500026105000202
S31502000650610500021507000261050002610500023C
S31502000660E706000261050002330700026105000287
S3150200067061050002CB0600021C4646F002067BE735
S315020006801C4646F0040677E71C4646F0080673E762
S315020006901C4646F001066FE714F9011B21F004031C
S315020006A0682B9CD114F9011B21F00403682B96D107
S315020006B0F2E7079B002B04DD069C002C40F09E808F
S315020006C0234418461BB0BDE8F08F102239685B46FA
S315020006D0081D386009680DEB0200CDE90056FFF7E8
S315020006E0B1FE079B3DE73B68784A191D39601D68D4
S315020006F0002D08BF154615F9011B00293FF430AF3E
S3150200070004A8FFF77FFE079B002BF4DA18461BB0FE
S31502000710BDE8F08F3A680823111D39601168002080
S315020007201022CDE900300DEB0200FFF78BFE079B8E
S3150200073017E739685B46081D386009680A22CDE961
S31502000740005604A8FFF77EFE079B0AE73B684FF0B8
S315020007500108191D39601B681A46039383EAE3737D
S31502000760A3EBE273092B09DD59481946A0FB03C323
S31502000770632908F101084FEAD303F6DCD84538BFEE
S31502000780D846002D43D1079900250B46002998DB50
S31502000790039B002B65DB73076FD406F00303022B62
S315020007A074D05B460A22CDE90056039904A8FFF7E6
S315020007B049FE079BD5E63B6804A81A1D3A6093F9E1
S315020007C00010FFF71FFE079BCBE694F90110A1F17B
S315020007D03002D2B2092A55D81C464FF0000B0BEB59
S315020007E08B0201EB420214F9011FA2F1300BA1F1B7
S315020007F03003DBB2092BF2D9631CEBE622465146E3
S3150200080048460393FFF7E4FD039B234459E7039A03
S3150200081006F00203002A1ADB720718D4002B4CD00A
S31502000820BBF1000F10D0F0070CD50DE0202104A873
S31502000830FFF7E8FD0799013D00290B46FFF641AF98
S31502000840002DA3D0A845F1D307990B469EE7013D9B
S3150200085013B1BBF1000FF7D0F207F5D4002DF1D199
S3150200086091E75B422D2104A80393FFF7CBFD07997D
S3150200087000290B46FFF625AF8FE72B2104A8FFF7C9
S31502000880C1FDF4E74FF0000B0133A3E6BBF1000F05
S3150200089087D1002D85D0454516D9302104A8FFF70A
S315020008A0B1FD0799013D00290B46FFF60AAF002D5F
S315020008B0F1D10029FFF605AF73E7F107C2D5079B11
S315020008C0002BBFF66EAFFCE60B46F2E7E0610002D4
S315020008D0CDCCCCCC0EB400B582B003AB53F8041B1E
S315020008E001AA0193FFF728FE02B05DF804EB03B0FC
S315020008F0704700BF0E2310B58AB02422002101A83A
S315020009008DF803304FF4803405F01AFC05E0013C03
S315020009100AD09DF803300A2B06D00DF1030101A877
S3150200092004F004FA0028F2D00AB010BD2DE9F04F07
S315020009308FB02422002105A805F002FCAB49002055
S31502000940FFF7C8FFAA49AB4804F004FF002800F0ED
S3150200095084820020A849FFF7BDFFA849A84804F0F1
S31502000960F9FE002800F075820020A649FFF7B2FFC3
S31502000970A549A04804F0C0FD002800F066820020C8
S31502000980A249FFF7A7FFA2499D4804F0B5FD00283A
S3150200099000F0578200209F49FFF79CFF9E499F481F
S315020009A004F0F4F9002840F05C829D499D4804F069
S315020009B0A1FC9C4804F06CFCEFF31081012383F345
S315020009C01088994B1A681AB94020984B1A751875EF
S315020009D0954803680133036081F31088944A136CC7
S315020009E023F0011323F4404343F004031364EFF3AB
S315020009F01081012383F31088036813B10368013B56
S31502000A000360894B1A681AB98020884B1A751875C3
S31502000A1081F310880123874EDFF83CB2864C874D5E
S31502000A200393874905A804F081F9824600283DD13F
S31502000A303288B2F5005F50D04DF6AD604BF6EF61ED
S31502000A40804BABF80000188003F580435980ABF861
S31502000A500410002A40F061817B4B1A78002A40F08C
S31502000A606C81774B1A78033A062ADAD801A151F833
S31502000A7022F000BFB10B0002910A0002D70C00025D
S31502000A80910A0002A70C0002230A00025D0C000272
S31502000A9000216E4B40226E48197005F051FB6849E1
S31502000AA005A804F043F982460028C1D0012240F687
S31502000AB00311684804F002FB002240F6041165485F
S31502000AC004F0FCFA002240F60731624804F0F6FA16
S31502000AD000BE3288B2F5005FAED1EFF3108101227B
S31502000AE082F31088504B1A681AB9504B1A75402275
S31502000AF01A754D4B1A6801321A6081F310884C49F7
S31502000B000A6C22F0011222F4404242F005020A6403
S31502000B10EFF31081012282F310881A6812B11A6863
S31502000B20013A1A60404B1A681AB9404B1A7580226C
S31502000B301A7581F3108800220492049AB2F5965F20
S31502000B4006D2049B01330493049BB3F5965FF8D354
S31502000B50EFF31081012282F31088334B1A681AB917
S31502000B60324B1A7540221A752F4B1A6801321A60D7
S31502000B7081F310882E490A6C22F0011222F44042B7
S31502000B8042F004020A64EFF31081012282F3108814
S31502000B901A6812B11A68013A1A60234B1A681AB90E
S31502000BA0224B1A7580221A7581F31088328843E720
S31502000BB0802340222649194804F0D0F900283FF440
S31502000BC030AF012240F60311224804F077FA0022E0
S31502000BD040F604111F4804F071FA002240F607316C
S31502000BE01C4804F06BFA00BE1BE700BFE861000276
S31502000BF0C4630002E8870022F4610002FC6300027B
S31502000C000C88002238620002B06300027C62000295
S31502000C10E8630002C062000280630002C487002209
S31502000C202064000230880022D8900022000D404045
S31502000C30000840405E870022648700226087002207
S31502000C40BB8700225047002254870022BA8700221F
S31502000C5068870022BC870022A88700228B4B1A785D
S31502000C60002A3CD1BAF1000F43D1894A8949174675
S31502000C7093780020009353781278FFF72BFE3846BC
S31502000C80854B3F7890F801C01F80844B07EB0C27F9
S31502000C90A3F800C0BBB2824F4022002133803B80C2
S31502000CA005F04EFABDE6BDF8203003F47F43B3F5F6
S31502000CB0005F00F0B480B3F5045F00F0B980B3F5CD
S31502000CC0085F7FF4AEAE0021764804F0DFF9002813
S31502000CD03FF4A7AE75E701236C4A1370A1E68023A1
S31502000CE040226B496F4804F039F98246BAF1000F87
S31502000CF0BBD0012240F603116B4804F0DFF9002253
S31502000D0040F60411684804F0D9F9002240F607318A
S31502000D10654804F0D3F900BEA7E7644BDFF8C49137
S31502000D20DFF8C4811A80624B1B78002B3BD13388D3
S31502000D30002BF8D101225F4B1A705C4B1A8872B3F2
S31502000D404FF00008DFF8809139F8023B06225A4933
S31502000D50ABF802305348802304F02AF98246FFF7A3
S31502000D60C9FD524B08F101081A884245ECDCB2B1C2
S31502000D704FF00008DFF8549139F8023B06224E493B
S31502000D80ABF802304748802304F012F98246FFF797
S31502000D90B1FD464B08F101081B884345ECDC0022F5
S31502000DA0444B1A705DE6484604F090FB404604F058
S31502000DB08DFB012323702B702146484604F08CFBE1
S31502000DC02378012BF8D02B78012B08D1DFF81CA150
S31502000DD05146404604F080FB2B78012BF8D00021C7
S31502000DE0364A484604F080FB1521354A404604F04F
S31502000DF07BFB0023824633482D4A0746039913702C
S31502000E0042883148338820F81120FA882F48013B5E
S31502000E109BB220F811204A1C3380039288E70722EE
S31502000E202B49204804F0EEF800283FF4FAADC8E654
S31502000E30072227491B4804F007F900283FF4F1ADC1
S31502000E40BFE62449FFF746FDA8E52349FFF742FD21
S31502000E5099E52249FFF73EFD8AE52149FFF73AFD6A
S31502000E607BE5012240F603110F4804F027F9002220
S31502000E7040F604110C4804F021F9002240F607312D
S31502000E80094804F01BF900BE8FE500BFBA870022AD
S31502000E9068870022046300025887002256870022D0
S31502000EA05A870022C4870022BC8700225C87002260
S31502000EB05587002254870022A8870022B287002283
S31502000EC0B6870022B0870022504700224807002238
S31502000ED040070022E06200029C62000258620002A1
S31502000EE014620002E88700220C8800226087002232
S31502000EF0022800D070470249024804F0BFB900BF79
S31502000F0048640002BC870022037913B90122014B0F
S31502000F101A7070475587002208B5FFF707FD0020B3
S31502000F2008BD00BF184B1B88012B00D0704710B5B7
S31502000F30817FC368052914BF4FF0820C4FF0800CE5
S31502000F40828C04698AB01B1B042A03938DF806104F
S31502000F508DF807C015D0052A10D0032A40F2DC53BB
S31502000F6008BF002390F8202001A90920ADF8083017
S31502000F708DF8042001F086FF0AB010BD40F2DF535F
S31502000F80F0E740F2DE53EDE7048A0022144B1B8899
S31502000F90012B00D0704700B5827F8BB0042A1CD08B
S31502000FA0002A0CBF4FF0820E4FF0810E818C40F268
S31502000FB0DC53012908BF002390F820C001A90A20AA
S31502000FC08DF806208DF807E08DF804C0ADF80830DC
S31502000FD001F058FF0BB05DF804FB4FF0800EE5E719
S31502000FE0048A002210B5044631B900F011FEC30589
S31502000FF017D54FF4807010BD00F082FE204600F037
S3150200100097FE10F4807F204606D000F0D7FE800AB5
S315020010100130800180B210BD00F0E6FEC0F30A0086
S3150200102010BD204600F028FE00F07F0010BD00BF74
S315020010302DE9F843534B90F82090044633F81930C3
S315020010400D469BB2022B50D000F074FC2946204676
S3150200105000F0AEFC2946204600F0F6FC2946204662
S3150200106001F0F2FE2946204600F04AFE64234E466F
S3150200107003FB09F3DFF8148105EB850203EB420358
S3150200108043445988AF00204600F06EFE012E63D01D
S31502001090642606FB09F62F4406EB4706464420461D
S315020010A0F18800F0BDFE2046318900F0D1FE2046CF
S315020010B0002100F025FE2946204600F071FF294650
S315020010C0204601F0ADFE2946204600F00DFF2946D6
S315020010D0204600F0E7FC2946204600F001FD29469D
S315020010E02046BDE8F84300F019BD0022264B43F81E
S315020010F0212002F0B3FC07462946204694F82060D8
S3150200110000F018FC2946204600F052FC29462046EB
S3150200111000F09AFC013F2946204601F095FEBFB237
S315020011202946204600F0ECFD012F1ED8642306FB5B
S3150200113003F305EB8502DFF8548003EB42034344D5
S315020011405988204641F48061598000F00DFE012E37
S31502001150B1464FEA85079BD17B1908EB430320462C
S31502001160B3F8681000F018FE92E764230A2206FB21
S3150200117003F302FB0533DFF81480B1464344598872
S31502001180AF0080E7D48C00224889002280880022A2
S3150200119070B5334B90F82020054633F812300E46D0
S315020011A09BB2022B03D100222E4B43F8212031465B
S315020011B0284601F049FE3146284600F0BBFB31467F
S315020011C0284600F0F5FB3146284600F03DFC48F281
S315020011D02F034FF400420021284600F05DFA002159
S315020011E0284600F023FA10F02F04F8D1314628469B
S315020011F000F086FD2146284600F0B6FD2146284627
S3150200120000F0CAFD2146284600F00AFE214628467D
S3150200121000F01EFE2146284600F072FD31462846A1
S3150200122000F0BEFE3146284601F0FAFD3146284658
S3150200123000F05AFE3146284600F05EFF3146284647
S3150200124000F078FF3146284600F02CFC314628464D
S3150200125000F046FC31462846BDE8704000F05EBC10
S31502001260D48C00224889002270B5012206460D461A
S315020012704FF6FF7400F0FAFE2946304600F000FEF3
S31502001280013C10F0200FA4B200D170BD002CF3D1A6
S3150200129070BD00BF70B505461646A2B164240BE0C8
S315020012A0284600F059F8013C284600F0D9F8A4B2C5
S315020012B00A2001F06DF8C4B13146284600F070FAF2
S315020012C08304EDD570BD41EA030444F4004248F2BA
S315020012D02F03314600F0E0F90021284600F0A6F976
S315020012E000F02F008442F7D1D8E7FF2070BD00BF7F
S315020012F002B1704738B543EA0104114648F22F039A
S3150200130044F40042054600F0C7F90021284600F0E1
S315020013108DF900F02F008442F7D138BD70B504462E
S315020013200D46164600F006FF29462046324600F0D4
S315020013301FFF29462046BDE8704000F0BFBE00BF31
S3150200134038B504460D4600F0D7FE29462046BDE8CC
S31502001350384000F0EFBE00BF094B90F8202033F86A
S3150200136012309BB2022B01D0002070471AB9054BEE
S31502001370188880B27047044B188880B2704700BF45
S31502001380D48C00220000254000103540012805D1EA
S31502001390034A13889BB243F480731380704700BFDD
S315020013A000103540094B90F8202033F812309BB2DA
S315020013B0022B00D07047012AFCD1054A138823F478
S315020013C080731B041B0C1380704700BFD48C002251
S315020013D000103540084B90F8202033F812309BB2AB
S315020013E0022B00D07047012AFCD1044A13889BB213
S315020013F043F0800313807047D48C002200103540DE
S31502001400094B90F8202033F812309BB2022B00D001
S315020014107047012AFCD1054AB2F840319BB20B4310
S31502001420A2F84031704700BFD48C0022001035402C
S31502001430094B90F8202033F812309BB2022B00D0D1
S315020014407047012AFCD1054AB2F840319BB223EA21
S315020014500103A2F840317047D48C002200103540B7
S31502001460094B90F8202033F812309BB2022B01D0A0
S31502001470002070471AB9054B988880B27047044B12
S31502001480988880B2704700BFD48C002200002540A5
S3150200149000103540094B90F8202033F812309BB2E9
S315020014A0022B01D0002070471AB9054B188980B269
S315020014B07047044B188980B2704700BFD48C002253
S315020014C00000254000103540064B90F8202033F8E6
S315020014D012309BB2022B00D07047002AFCD0024B7E
S315020014E099817047D48C002200103540084B90F841
S315020014F0202033F812309BB2022B01D00020704715
S315020015000029FBD1012A0846F9D1024B58697047D6
S31502001510D48C002200103540074B90F8200033F897
S3150200152010309BB2022B00D070470029FCD1012853
S3150200153004BF024B5A617047D48C0022001035401A
S31502001540094B90F8202033F812309BB2022B01D0BF
S31502001550002070470029FBD1012A0BBF034B044B25
S31502001560D88A988A80B27047D48C002200103540FF
S3150200157000002540134B90F8200033F810309BB240
S31502001580022B0DD0012913D0022903D039B90E4BF3
S315020015909A8270470C4B9A8370470C4BDA837047DA
S315020015A00128EFD1012909D00229F6D019B17047D5
S315020015B0054B1A837047054BDA827047034B5A83F1
S315020015C0704700BFD48C0022000025400010354031
S315020015D0134B90F8200033F810309BB2022B0DD03B
S315020015E0012913D0022903D039B90E4B1A75704757
S315020015F00C4B1A7770470C4BDA7770470128EFD1FC
S31502001600012909D00229F6D019B17047054B1A767D
S315020016107047054BDA757047034BDA76704700BFA1
S31502001620D48C00220000254000103540134B90F860
S31502001630202033F812309BB2022B1CD1012912D082
S31502001640022907D10E49012A0E4B08BF0B461888FC
S3150200165080B2704779B90C49012A0C4B08BF0B4678
S31502001660188880B270470A49012A0A4B08BF0B46FE
S31502001670188880B2704700231B88FFDED48C0022B4
S315020016802C1035402C0025402010354020002540E6
S31502001690281035402800254010B4174C90F820C079
S315020016A034F81C0080B2022822D1012919D002295D
S315020016B006D11249BCF1010F114808BF084606E0DF
S315020016C0B1B91049BCF1010F0F4808BF084601889D
S315020016D01A4089B221EA0303134303805DF8044BDF
S315020016E070470A49BCF1010F094808BF0846EEE7F0
S315020016F000231B88FFDE00BFD48C00222C1035404D
S315020017002C00254020103540200025402810354069
S315020017102800254010B41B4C90F8200034F81030F5
S315020017209BB2022B04D101291AD0022924D0E9B195
S31502001730002134F810309BB2022B02D05DF8044B24
S3150200174070470B8823F440631B041B0C0B80002A92
S31502001750F4D00B889BB213430B805DF8044B7047A1
S31502001760094B0128094908BF1946E2E7084B012837
S31502001770084908BF1946DCE7074B0128074908BF95
S315020017801946D6E7D48C0022281035402800254079
S3150200179020103540200025402C1035402C002540D5
S315020017A0134B90F8202033F812309BB2022B1CD137
S315020017B0012912D0022907D10E49012A0E4B08BF70
S315020017C00B46188880B2704779B90C49012A0C4B2E
S315020017D008BF0B46188880B270470A49012A0A4B8D
S315020017E008BF0B46188880B2704700231B88FFDEAD
S315020017F0D48C00222E1035402E0025402210354072
S31502001800220025402A1035402A002540154B90F823
S31502001810202033F812309BB2022B20D1012917D097
S31502001820022906D1104B1149012A14BF1A460A464B
S3150200183006E0A1B90E4B0F49012A14BF1A460A4601
S3150200184013886FEA43436FEA53439BB21380704790
S31502001850094B0A49012A14BF1A460A46F0E7002331
S315020018601B88FFDED48C00222E0025402E10354028
S3150200187022002540221035402A0025402A103540F4
S31502001880154B90F8202033F812309BB2022B1FD151
S31502001890012914D0022908D11049012A104B4FF40C
S315020018A0804208BF0B461A80704789B90D49012A42
S315020018B00D4B4FF4804208BF0B461A8070470B4906
S315020018C0012A0B4B4FF4804208BF0B461A80704721
S315020018D000231B80FFDE00BFD48C00222E10354071
S315020018E02E00254022103540220025402A10354080
S315020018F02A0025400C4B90F8202033F812309BB278
S31502001900022B00D0704701238B409BB22AB90749AC
S31502001910CA8E92B21343CB8670470549CA8E92B2DB
S315020019201343CB86704700BFD48C002200002540AB
S31502001930001035400B4B90F8202033F812309BB242
S31502001940022B00D0704701238B40DB439BB222B9A6
S31502001950054AD18E0B40D3867047044AD18E0B407E
S31502001960D3867047D48C00220000254000103540F3
S315020019700C4B90F8202033F812309BB2022B00D089
S31502001980704701238B409BB22AB907490A8F92B24C
S3150200199013430B87704705490A8F92B213430B878D
S315020019A0704700BFD48C002200002540001035404D
S315020019B00B4B90F8202033F812309BB2022B00D04A
S315020019C0704701238B40DB439BB222B9054A118F34
S315020019D00B4013877047044A118F0B4013877047D9
S315020019E0D48C00220000254000103540124B90F89E
S315020019F0202033F812309BB2022B00D0704701230D
S31502001A008B409BB25AB910B40C4C0D4824F81120E5
S31502001A10428F92B2134343875DF8044B70474FF0EF
S31502001A20000C064A07480A3122F811C0428F92B2C8
S31502001A3013434387704700BFD48C00225888002284
S31502001A4000002540001035400B4B90F8202033F85B
S31502001A5012309BB2022B00D0704701238B40DB432E
S31502001A609BB222B9054A518F0B4053877047044AED
S31502001A70518F0B4053877047D48C002200002540BB
S31502001A800010354020B9054BB3F8400080B27047CC
S31502001A90034BB3F8400080B2704700BF00002540F8
S31502001AA0001035400B4B90F8202033F812309BB2D1
S31502001AB0022B00D0704701238B40DB43C3F309039B
S31502001AC01AB9054AA2F846307047044AA2F84630C7
S31502001AD0704700BFD48C002200002540001035401C
S31502001AE00B4B90F8202033F812309BB2022B00D019
S31502001AF0704701238B40DB43C3F309031AB9054A36
S31502001B00A2F848307047044AA2F84830704700BF2E
S31502001B10D48C002200002540001035400B4B90F873
S31502001B20202033F812309BB2022B00D070470123DB
S31502001B308B40DB43C3F309031AB9054AA2F84A30BC
S31502001B407047044AA2F84A30704700BFD48C00227C
S31502001B5000002540001035400A4B90F8202033F84B
S31502001B6012309BB2022B01D00020704722B9064BDD
S31502001B70B3F84C0080B27047044BB3F84C0080B205
S31502001B80704700BFD48C002200002540001035406B
S31502001B9020B9054BB3F8540080B27047034BB3F833
S31502001BA0540080B2704700BF000025400010354047
S31502001BB020B9054BB3F8560080B27047034BB3F811
S31502001BC0560080B2704700BF000025400010354025
S31502001BD020B9054BB3F8580080B27047034BB3F8EF
S31502001BE0580080B2704700BF000025400010354003
S31502001BF020B9054BB3F85A0080B27047034BB3F8CD
S31502001C005A0080B2704700BF0000254000103540E0
S31502001C100A4B90F8202033F812309BB2022B01D0E7
S31502001C200020704722B9064BB3F85C0080B27047B9
S31502001C30044BB3F85C0080B2704700BFD48C00221C
S31502001C400000254000103540084B90F8202033F85C
S31502001C5012309BB2022B00D070471AB9044BA3F87C
S31502001C605C107047034BA3F85C107047D48C0022BB
S31502001C7000002540001035400A4B90F8202033F82A
S31502001C8012309BB2022B01D00020704722B9064BBC
S31502001C90B3F85E0080B27047044BB3F85E0080B2C0
S31502001CA0704700BFD48C002200002540001035404A
S31502001CB0084B90F8202033F812309BB2022B00D04A
S31502001CC070471AB9044BA3F85E107047034BA3F88A
S31502001CD05E107047D48C002200002540001035406B
S31502001CE020B9054BB3F8600080B27047034BB3F8D6
S31502001CF0600080B2704700BF0000254000103540EA
S31502001D00084B90F8202033F812309BB2022B00D0F9
S31502001D1070471AB9044BA3F864107047034BA3F833
S31502001D2064107047D48C0022000025400010354014
S31502001D300A4B90F8202033F812309BB2022B01D0C6
S31502001D400020704722B9064BB3F8680080B270478C
S31502001D50044BB3F8680080B2704700BFD48C0022EF
S31502001D600000254000103540084B90F8202033F83B
S31502001D7012309BB2022B00D070471AB9044BA3F85B
S31502001D8068107047034BA3F868107047D48C002282
S31502001D900000254000103540064B90F8202033F80D
S31502001DA012309BB2022B04D1012A04BF024BA3F8C4
S31502001DB06A107047D48C002200103540084B90F808
S31502001DC0200033F810309BB2022B01D0002070475E
S31502001DD00028FCD0034BB3F86A0080B2704700BFFC
S31502001DE0D48C0022001035400A4B90F8202033F89C
S31502001DF012309BB2022B01D00020704722B9064B4B
S31502001E00B3F86C0080B27047044BB3F86C0080B232
S31502001E10704700BFD48C00220000254000103540D8
S31502001E20084B90F8202033F812309BB2022B00D0D8
S31502001E3070471AB9044BA3F86C107047034BA3F80A
S31502001E406C107047D48C00220000254000103540EB
S31502001E50084B90F8202033F812309BB2022B00D0A8
S31502001E6070471AB9044BA3F86E107047034BA3F8D8
S31502001E706E107047D48C00220000254000103540B9
S31502001E804FF0000C134B90F8202082B0ADF806C03C
S31502001E9033F812309BB2022B04D0BDF8060080B292
S31502001EA002B0704762B181B10B4B03EB41031B8851
S31502001EB09BB2ADF80630BDF8060080B202B070479C
S31502001EC029B1064B03EB4103F1E7054BEFE7054B5F
S31502001ED0EDE700BFD48C00226E1035406E0025401F
S31502001EE060103540600025400A4B90F8202033F8F8
S31502001EF012309BB2022B00D0704749003AB1064A13
S31502001F000A4413889BB243F4005313807047034A72
S31502001F100A44F6E7D48C00226E1035406E00254046
S31502001F200D4B90F8202033F812309BB2022B00D0D2
S31502001F30704742B9094A32F811309BB243F4007332
S31502001F4022F811307047064A32F811309BB243F438
S31502001F50007322F811307047D48C00226E0025409F
S31502001F606E1035400B4B90F8202033F812309BB29E
S31502001F70022B00D07047490042B1074A0A4413882F
S31502001F8023F400731B041B0C13807047034A0A4494
S31502001F90F5E700BFD48C00226E1035406E00254056
S31502001FA0174B90F8202033F812309BB2022B00D048
S31502001FB070474AB9D9B9134AB2F860309BB243F4B2
S31502001FC08073A2F86030704741B90F4AB2F86030A8
S31502001FD09BB243F48073A2F8603070470B4A32F822
S31502001FE011309BB243F4807322F81130E0E7084ABD
S31502001FF032F811309BB243F4807322F811307047E5
S31502002000D48C002200002540001035406E10354069
S315020020106E002540104B90F8200033F810309BB22A
S31502002020022B00D0704770B191B10C4B03EB41010A
S315020020300B8823F003031B041B0C0B800B889BB23B
S3150200204013430B80704729B1054B03EB4101EFE7C0
S315020020500449EDE70449EBE7D48C00226E103540C3
S315020020606E00254060103540600025400E4B90F80A
S31502002070200033F810309BB2022B00D0704748B1D3
S3150200208069B10A4B03EB41010B889BB223EA0203B7
S315020020900B80704729B1064B03EB4101F4E7054972
S315020020A0F2E70549F0E700BFD48C00226E103540F6
S315020020B06E00254060103540600025400B4B90F8BD
S315020020C0202033F812309BB2022B00D07047013920
S315020020D089003AB1064A0A4413889BB243F4007354
S315020020E013807047034A0A44F6E700BFD48C0022E5
S315020020F090103540900025400B4B90F8202033F885
S3150200210012309BB2022B00D070470139890042B1CE
S31502002110064A0A44138823F400731B041B0C13801B
S315020021207047034A0A44F5E7D48C002290103540E2
S31502002130900025400B4B90F8202033F812309BB2CA
S31502002140022B00D07047013989003AB1064A0A4487
S3150200215013889BB243F4807313807047034A0A4480
S31502002160F6E700BFD48C002290103540900025403F
S31502002170094B90F8200033F810309BB2022B00D0A6
S3150200218070470139890018B1044B0B441A80704715
S31502002190034B0B44FAE700BFD48C00229210354061
S315020021A092002540084B90F8202033F812309BB25B
S315020021B0022B01D000207047012AFBD1034BB3F852
S315020021C0400180B2704700BFD48C00220010354017
S315020021D0012807D1044AB2F802319BB243F4804384
S315020021E0A2F80231704700BF00103540012808D11D
S315020021F0044AB2F8023123F480431B041B0CA2F8F2
S31502002200023170470010354010B5124B5A6850B96A
S3150200221011051BD5EFF31084012181F310885A684A
S3150200222022F4006209E0D20410D5EFF310840121F2
S3150200223081F310885A6822F480525A605B689620AD
S3150200224003F040FD84F31088002010BD40F2DD50FB
S3150200225010BD00BF0030204030B4002865D1494B84
S31502002260D3F8002460F30412C3F8002491F90D3068
S31502002270002B2EDA91F90C30002B01DA30BC7047B4
S315020022800A7D414C03F1604C12014048D2B20CF572
S31502002290614C8CF8002303F5C65244F8231050F81B
S315020022A0221021F4803140F8221050F82220BFF388
S315020022B05F8F01215A09920003F01F0302F1604267
S315020022C002F5614201FA03F3C2F88031136030BCB1
S315020022D070474A7D03F1604C12012B4CD2B20CF5C9
S315020022E0614C8CF80023294A44F8231003F5C65C96
S315020022F052F82C4060F3104442F82C4052F82C203D
S31502002300BFF35F8F01205A09920003F01F0302F107
S31502002310604202F5614200FA03F3C2F880311360AB
S3150200232091F90C30002BA9DBAAE70128A6D191F975
S315020023301030002BA2DB0A7E03F160441201124D1B
S31502002340D2B204F5614484F80023104A45F82310FA
S3150200235003F5C65152F8214024F4803442F8214054
S3150200236052F82120BFF35F8F5A09920003F01F0330
S3150200237002F16042984002F56142C2F880011060A3
S3150200238030BC704700002540E0900022006000400B
S31502002390012103F097BC00BF4FF47A7103F092BC9F
S315020023A0EFF30383103B0A4A5BB203F5C65352F8B6
S315020023B0231021F4803142F8231052F82330054BC2
S315020023C01B889BB2012B00D1704701F0BFBA00BF38
S315020023D000600040D48C0022EFF30383103B094ACD
S315020023E05BB203F5C65152F8210020F4803042F860
S315020023F0210052F82120044A52F82330987800F03E
S315020024002FBB00BF00600040E0900022EFF3038381
S31502002410103B064A5BB203F5C65352F8231021F469
S31502002420803142F8231052F8233070470060004092
S31502002430EFF30383103B064A5BB203F5C65352F829
S31502002440231021F4803142F8231052F823307047CA
S3150200245000600040EFF30383103B0A4A5BB203F5C8
S31502002460C65352F8231021F4803142F8231052F851
S315020024702330054B5B889BB2012B00D1704701F0DC
S3150200248065BA00BF00600040D48C0022EFF30383DC
S31502002490103B064A5BB203F5C65352F8231021F4E9
S315020024A0803142F8231052F8233070470060004012
S315020024B0EFF30383103B064A5BB203F5C65352F8A9
S315020024C0231021F4803142F8231052F8233070474A
S315020024D0006000402DE9F043012A0CBF7A4B7B4B8A
S315020024E00446B3F840E0B3F84660B3F84870B3F870
S315020024F04A80B3F830C0D88EB3F838905B8F1FFA93
S315020025008EFE9DB20023BEF1FF0F238083B0B6B2CA
S31502002510BFB21FFA88F81FFA8CFC80B21FFA89F93B
S315020025200B800ED90EEA0C0313F4804F0CD0012A4D
S315020025304BF6FF720CBF644B644BA3F84020122388
S31502002540238003B0BDE8F08313F4004F0DD113F4DA
S31502002550005F17D0012A4DF6FF720CBF5A4B5B4B38
S31502002560A3F8402013232380EBE7012A47F6FF72E4
S315020025700CBF554B554BA3F840201123238003B0C3
S31502002580BDE8F08313F4805F12D1304013F48076F5
S315020025901BD010F0010F18D0012A40F2FE320CBFF8
S315020025A0494B4A4BA3F84620012323800B80C8E7F8
S315020025B0012A4EF6FF720CBF434B444BA3F8402050
S315020025C014232380A1F800E0BBE713F4806C08EA29
S315020025D005050FD015F0010F0CD0012A40F2FE328C
S315020025E00CBF394B394BA3F84A2002220123228021
S315020025F00B80A6E713F4007F11D007EA090717F04C
S31502002600010F4DD0012A40F2FE320CBF2E4B2F4B4A
S31502002610A3F848200322012322800B8091E71F059D
S315020026201DD47EB9BCF1000F8BD0EB43012A0CBF3F
S31502002630254A264AC3F30903A2F84A300223238015
S315020026400D807EE7C343012A0CBF1F4A1F4AC3F30C
S315020026500903A2F8463001232380088071E7104659
S3150200266001910092FFF70EFA0199009A08804FF243
S31502002670FF70012A0CBF144B144BA3F8400015231C
S3150200268023800B8803F00703062B7FF45AAF10460C
S31502002690009100F0F5F90023009923800B8050E7A2
S315020026A01B05DCD4002ECDD1BCF1000FBDD1FB43FE
S315020026B0012A0CBF044A054AC3F30903A2F84830AB
S315020026C0032323800F803CE700103540000025409D
S315020026D010B5044600F0D4F92046FFF759FA02462F
S315020026E0094B20461A80FFF763FA0246074B20463B
S315020026F01A80FFF76DFA0246054B20461A80FFF74D
S3150200270077FA044B188010BD108A00220E8A002226
S315020027100C8A00220A8A002208B590F82000FFF7E8
S31502002720B1F900F07000A0F13000B0FA80F0400973
S3150200273008BD00BF38B50F4D04462B8803F47F430E
S31502002740B3F5407F0AD006D8B3F5807F06D0B3F53D
S31502002750007F03D038BDB3F5806FFBD12046002140
S31502002760FEF7B2FE29882046BDE83840090AFEF780
S31502002770ABBE00BF5A8A002210B5044690F820006C
S3150200278000F06EF994F82000BDE8104000F058B948
S315020027900B46022201461846FFF73CBC02220021E4
S315020027A0FFF738BC2DE9F0411D4693F820308046EC
S315020027B00F46144613BB46083DD002EB460634F8D4
S315020027C0022B39462846FEF7D5FEB442F7D118F059
S315020027D0010F2BD0394628460022FEF79BFF16F83A
S315020027E0012B39462846FEF7F3FE28464FF480624F
S315020027F03946FEF78FFF3046BDE8F081860818D0CD
S3150200280002EB860654F8042B39462846FEF784FE68
S31502002810B442F7D118F0020F1BD118F0010F0CD1F8
S315020028204FF4006239462846FEF774FF3046BDE88B
S31502002830F0811646EEE71646C9E7394628460022D3
S31502002840FEF768FF3946284616F8012BFEF7C0FE4A
S31502002850E6E7394628464FF48062FEF75BFF3946C3
S31502002860284636F8022BFEF785FED6E72DE9F0411B
S315020028701E4693F8203080460F461446BBB94508DB
S315020028803BD002EB450539463046FEF759FE24F8A1
S31502002890020BAC42F7D118F0010F19D03946304677
S315020028A0FEF74EFE05F8010B2846BDE8F0818508C5
S315020028B011D002EB850539463046FEF717FE44F87D
S315020028C0040BAC42F7D108F00308B8F1000F06D1A9
S315020028D02846BDE8F0811546B8F1000FF8D0394612
S315020028E03046FEF703FEA84405F8010B45454FEABC
S315020028F01020F9D12846BDE8F0811546CBE700BF86
S31502002900F8B5154604460F4601461046FEF7ACFCDE
S3150200291021462846FFF70EF821462846FFF748F8D3
S3150200292021462846FFF790F821462846FEF708FD7D
S3150200293000212846FEF77AFE00F00F00844224D0DA
S3150200294021462846144E00F06BFA21462846FFF728
S31502002950CBFA56F82430BBB1104A284652F8242046
S3150200296021461A6156F824309F8456F82450FFF700
S3150200297087FAE88456F82400436813B10022114608
S315020029809847002346F82430F8BD002328461A4605
S315020029901946FEF7ADFCD3E7488900229889002242
S315020029A010B5064C238803B910BDFFF711FC64204D
S315020029B0FFF7EEFC0023238010BD00BF50880022E3
S315020029C00122024B1A80FFF711BC00BF5088002279
S315020029D030B9074A13889BB243F01003138070473D
S315020029E0044A13889BB243F010031380704700BF5A
S315020029F0000025400010354038B9054A138823F0F7
S31502002A0010031B041B0C13807047024AF6E700BF33
S31502002A10000025400010354030B9074A138E9BB29C
S31502002A2043F4804313867047044A138E9BB243F4E1
S31502002A3080431386704700BF0000254000103540D2
S31502002A4038B9054A138E23F480431B041B0C1386E4
S31502002A507047024AF6E700BF0000254000103540E5
S31502002A604BF6FF7218B9044BA3F840207047034B8C
S31502002A70A3F84020704700BF0000254000103540F3
S31502002A804FF6F77218B9044BA3F840207047034B70
S31502002A90A3F84020704700BF0000254000103540D3
S31502002AA040B9094AB2F860309BB243F00403A2F877
S31502002AB060307047054AB2F860309BB243F00403B7
S31502002AC0A2F86030704700BF000025400010354074
S31502002AD0E0B9354B1A8892B242F480621A801A889B
S31502002AE05205FCD54FF480614FF41D401A8822F03E
S31502002AF020021204120C1A801A8892B242F00102C3
S31502002B001A801984198599851886704710B5274C3D
S31502002B100120E38F9BB243F03103E387E38F23F077
S31502002B2030031B041B0CE387E38F9BB243F02003A5
S31502002B30E387FFF72DFCE38F012023F001031B043B
S31502002B401B0CE387FFF728FCE38F23F002031B0429
S31502002B501B0CE387238823F020031B041B0C238012
S31502002B6023889BB243F001032380B4F802319BB25F
S31502002B7043F48043A4F80231E388DB07FCD540F630
S31502002B8007734FF4006200204FF41D416380E38F08
S31502002B909BB243F48073E38722842285A285A4F83C
S31502002BA04000218610BD00BF0000254000103540C0
S31502002BB088B90C4AB2F8603023F003031B041B0CDD
S31502002BC0A2F86030B2F860309BB231B943F001032B
S31502002BD0A2F860307047044AECE743F00203A2F819
S31502002BE0603070470000254000103540104B90F8C9
S31502002BF000C033F81C309BB2022B01D00020704774
S31502002C000C4B1B88012B10D000B54FF0010E8FB074
S31502002C10094B10466A468DF820C0A3F800E000F082
S31502002C2043FA00200FB05DF804FBD520704700BFC1
S31502002C30D48C0022088A0022068A002230B51F4B55
S31502002C400446007899B033F810308DF848009BB2EC
S31502002C50022B02D0002019B030BD0D4661B1184BCF
S31502002C601B88012B25D00124164B294610460AAA99
S31502002C701C8000F0D5F9EDE7002AF0D1A3880AA856
S31502002C80CBB1FFF78BFD0023932594F800C004AA6D
S31502002C900C3494E8030082E80300082001A98DF8A9
S31502002CA004C00393ADF808308DF8075000F0EAF837
S31502002CB0D0E7D520CFE700F0C1F8E4E7D48C0022B4
S31502002CC0088A0022068A0022C378092B1DD810B56D
S31502002CD05B000F4CDBB214F803C00E4CCCEBCC03FA
S31502002CE004EBC303DA6090F800E01A61996083F896
S31502002CF020E0A3F81EC0C178074A184652F83120D0
S31502002D005A60BDE8104000F0DDBC0020704700BFED
S31502002D1040690002D88C0022A0010022C378092B48
S31502002D2028D85B00844601331948DBB270B510F827
S31502002D3003E0184BCEEBCE00BEF1060F03EBC0004C
S31502002D401AD0026181604FEACE029CF80010A2EB13
S31502002D500E0203EBC20383F82010A3F81EE09CF8D0
S31502002D6003100D4A02EBC10252685A60BDE8704078
S31502002D7000F0A8BC002070470A250E78074C3022C6
S31502002D8026724978C3F858416172C3F86051DCE78C
S31502002D9040690002D88C0022A00100229401002280
S31502002DA0092900D97047FEF7E3BD00BF092901D9F9
S31502002DB00020704708B5FFF763F800F0030008BD6E
S31502002DC009290FD810B541B10446FEF799FF2046EE
S31502002DD0FFF70AF8C0F30A0010BDFEF74DFFC0F375
S31502002DE00A0010BD00207047092901D9002070474A
S31502002DF010B50446FEF784FF2046FEF799FF00F061
S31502002E00100010BD092901D90020704710B50446EB
S31502002E10FEF776FF2046FEF78BFF00F4404010BD1A
S31502002E20092900D9704738B50C460546FFF778F8E8
S31502002E3021462846BDE83840FFF794B8092900D94B
S31502002E4070470122FFF7E6B8092900D9704738B55D
S31502002E500C460546FEF708FA21462846BDE83840E4
S31502002E600222FFF703B900BF08B5FEF713FB0022E3
S31502002E7000F00700431E032B4FEA801028BF1046BE
S31502002E8008BD00BF2DE9F0418E46284E0D46337827
S31502002E908046F21803EBC30C0133DCB20A2C28BFBE
S31502002EA0002406EB8C0C90700CF10C0CBEE80F00A3
S31502002EB0ACE80F00BEE80F00ACE80F00DEF8003009
S31502002EC03470CCF800301A4F2B788AB057F823208A
S31502002ED03AB3184A85F8068052F8234024B3A64628
S31502002EE00DF1040CBEE80F00ACE80F00BEE80F00BF
S31502002EF0ACE80F00DEF80030CCF80030A446AE464F
S31502002F00BEE80F00ACE80F00BEE80F00ACE80F0009
S31502002F10DEF800302046CCF800302B7857F8233004
S31502002F2098470AB0BDE8F08101ACE7E71C8F0022A2
S31502002F30108F0022088F002200F066B938B50546C8
S31502002F4090F82000FEF722FA01212846FEF758FAE9
S31502002F500520FFF721FA00242846FEF781FA8207A8
S31502002F6009D10B20FFF718FA2846FEF779FA0B3437
S31502002F708307A4B20DD001340120A4B2FFF70CFAE4
S31502002F80B4F5167FE8D328460121FEF751FA002050
S31502002F9038BD28460121FEF74BFA012038BD00BF95
S31502002FA030B504468BB0FFF7C9FF06212046FEF76F
S31502002FB027FA2A20FFF7F0F92046FFF7F3F805462D
S31502002FC006212046FEF734FA1620FFF7E5F915F436
S31502002FD080751FD018212046FEF712FA2A20FFF725
S31502002FE0DBF92046FFF7DEF8054618212046FEF7F4
S31502002FF01FFA15F4007F14BF02220122074B94F830
S3150200300020400B2001A98DF804401A80FFF73AFFF1
S315020030100BB030BD014B1D800BB030BDC089002204
S3150200302070B51446002201261C4B1D4D18601D4B1F
S3150200303020461960114620232E80FEF759F90021F9
S315020030402046FEF71DFC00212046FEF767FD002103
S315020030502246084600F038FDB042054613D020F05D
S315020030600206B6B20EB1284670BD31462046FEF7BC
S31502003070BDFC31462046FFF793FE20463146FFF758
S31502003080DDFE284670BD20460021FFF789FE204658
S315020030900021FFF7D3FE284670BD00BF98890022A3
S315020030A0088A00227089002238B5114C002320605C
S315020030B014464FF0010C0F4A0F4D20461160194677
S315020030C01A46A5F800C0FEF713F920460021FEF7BE
S315020030D0D7FB20460021FEF70DFC20460021FFF714
S315020030E05FFE2046BDE838400021FFF7A7BE00BFBD
S315020030F09889002270890022088A002270B500256C
S315020031000C460646194A1A4B2946204615801D804A
S31502003110FEF79AFC29462046FEF70CFC2946204675
S31502003120FEF746FC94F820302946012B0CBF4FF4DB
S3150200313000624FF480622046FEF7ECFA26F00203A4
S31502003140052B07D0082E0AD094F82000BDE870405F
S31502003150FFF7A6BC2046BDE87040FFF71FBB20461E
S31502003160BDE870400021FEF77FB800BF088A002242
S31502003170068A002203464FF0010C00B5074A8BB0BF
S3150200318093F82030032001A9A2F800C08DF804307C
S31502003190FFF778FE0BB05DF804FB00BF048A00223D
S315020031A0034600B58BB093F82030042001A98DF8B0
S315020031B00430FFF767FE0BB05DF804FB034600B56B
S315020031C08BB093F82030052001A98DF80430FFF763
S315020031D059FE0BB05DF804FB704700BF094B1A8815
S315020031E0012A00D07047002200B58BB090F820C0AB
S315020031F001A906208DF804C01A80FFF743FE0BB022
S315020032005DF804FB048A0022F0B5784C8FB094F87E
S31502003210413094F840209A4201D10FB0F0BD04EB40
S31502003220C301486834F833208078013A49888DF81A
S315020032302000142A1AD8DFE802F0504A4419191954
S3150200324019191919191919191919360B19292000D9
S31502003250674B5B6A002B66D000226E4611463046EB
S3150200326098473046FFF788FA94F84130013303F065
S31502003270070384F841300FB0F0BD01F00705052DB4
S3150200328033D8DFE805F052303230323001F07002C6
S31502003290402A3DD036D8102AE8D1684600F056FFBB
S315020032A094F84130E2E7FEF771F89DF8200000F04D
S315020032B0F3FF4028684631D000F076FF94F841309B
S315020032C0D4E7684600F018FB94F84130CEE768462A
S315020032D000F018FB94F84130C8E7684600F0DCFAC3
S315020032E094F84130C2E7FFF7F3F9424B1A8812F01D
S315020032F0600F56D1691E042971D8DFE801F0433DFB
S3150200330037312B00602A03D001F050015029ADD18C
S31502003310684600F08BFF94F84130A7E700F036FFCD
S3150200332094F84130A2E76E469BE7334B1B88012B8C
S315020033302ED0304B1A8812F0600F32D16E4600231F
S315020033402E492F4A30460B80138001F043F894F839
S3150200335041308BE7684601F0D7F994F8413085E7AA
S31502003360684601F0C9FB94F841307FE7684601F0F0
S31502003370C9F994F8413079E7684601F05FFB94F8A1
S31502003380413073E7684601F065F894F841306DE71D
S315020033906E463046FFF7CEF9164B1A8812F0600FCA
S315020033A0CDD00023174918480F881849B0F800E015
S315020033B0B1F800C00E491648CE6A194662F30F03E9
S315020033C06EF30F0167F31F436CF31F410360416005
S315020033D016B129466A46B04794F8413046E70720B7
S315020033E06946FFF78BFE94F841303FE7788C00225E
S315020033F0D0890022108A0022588A0022088A0022D6
S31502003400068A00220E8A00220C8A00220A8A0022DA
S31502003410C889002238B50F4BC58B044643F82500F0
S31502003420FFF77AF9012806D0284622460721FFF738
S3150200343067FA002038BD29462046FFF7D5FC20B999
S31502003440284600F0C7FB002038BD284600F00EFBD8
S31502003450002038BD48890022002110B4054B064CD5
S31502003460198021804FF4FF7204485DF8044B02F084
S3150200347067BE00BF5C8A0022768C0022788A002210
S315020034808446044B4FF4FF7200210348A3F800C0A0
S3150200349002F056BE768C0022788A002287FF5F6889
S315020034A0054B03F1300283ED887EA3EC907E82ED1C
S315020034B0807E83ED807E7047188A0022014B9B68CE
S315020034C018797047D089002230B5104B9B6893F863
S315020034D002E0D9781A784EEA012E7245134412D2C6
S315020034E005460020197893F801C00A44BCF1040F7E
S315020034F01C4692B20B4403D1A178A94208BFE078D8
S315020035009645EFD830BD002030BD00BFD0890022DD
S315020035102DE9F041264B9B68DC7893F802E01A7895
S315020035200EEB042E1FFA8EFE7245134437D2002587
S31502003530204E2F462C461DE0BCF1050F13D1AC429E
S3150200354011D293F802C093F902800CF00F0C4FEAE5
S31502003550D8780CEB081C07EB04085FFA88F80134EC
S3150200356026F81C80A4B293F800C0624492B2724557
S31502003570634414D293F801C0BCF1040FDCD193F872
S31502003580028093F804C080450BD0BC441FFA8CF726
S3150200359093F800C06244D2B272456344EAD3BDE8EE
S315020035A0F08193F803808845EFD16546F0E700BFC6
S315020035B0D0890022188A0022044B188820B1044BB5
S315020035C09B68D879C0F34010704700BF768C002202
S315020035D0D0890022024B9B68D879C0F380107047CD
S315020035E0D0890022092800D9704738B50446154605
S315020035F000F034FB032815D80138022822D8DFE868
S3150200360000F003020A0038BD2A462046BDE83840CB
S31502003610042100F0A3BB2A462046BDE83840052116
S31502003620FFF76EB9FF2806D12A462046BDE8384084
S315020036301521FFF765B92A462046BDE8384007211D
S31502003640FFF75EB92A462046BDE83840032100F05E
S3150200365085BB00BF092800D9704770B504460E46DF
S31502003660154601461046FEF765F92A4631462046BA
S3150200367000F02AFA022813D008D9FF281AD12A46BE
S315020036802046BDE870401521FFF73AB92146284683
S31502003690FEF7ACF921462846BDE87040FFF780BB2D
S315020036A021462846FEF726F921462846BDE87040FF
S315020036B0FFF776BB2A462046BDE870400721FFF792
S315020036C01FB900BFC18BC1B110B50D4B044653F8EB
S315020036D0213023B1FFF796FBB0F5404F0BD12046C0
S315020036E0FFF71AF8012801D0FF2010BD2046BDE8D9
S315020036F01040FFF78FBED52010BDFF20704700BFD8
S3150200370048890022F0B51648164C174A174B89B05D
S31502003710CDE90623CDE904404A689DED047FD2E94E
S315020037200071D2E903649068002908BF0146104B74
S31502003730127D1C610F4DCDE90076DFF840E0039063
S3150200374083ED057F5D62C3F828E002919DED007F5F
S31502003750094883ED007FD86283F8302009B0F0BDB6
S3150200376075310002ED370002DD310002A13100029F
S31502003770D0890022BD3100023D4C0002D93100023F
S315020037802DE9F047047894422AD20646174698460F
S315020037904FF0000A4FF0FF0911E0BCF1050F08D106
S315020037A052464146284600F0ADFB002818BF4FF0AE
S315020037B0000995F800C06444A4B2A7420DD9351990
S315020037C095F801C0BCF1040FE7D195F800C095F851
S315020037D005A06444A4B2A742F1D84846BDE8F087E2
S315020037E04FF0FF094846BDE8F08700BF2DE9F041DA
S315020037F0274B04461A880D46012A8AB033D00DF1AA
S315020038000408244BC02D9A6822D0002A38D00221FF
S315020038105170DB680BB1072159701746FB78BE78E9
S3150200382094F8200006EB0326B6B200F0FDFB234611
S31502003830324629463846FFF7A3FF94F82030012086
S3150200384041468DF80430FFF71DFB0AB0BDE8F08152
S31502003850DF68DAB107215170DB680BB102225A70B8
S31502003860002FDBD1FEE7002290F820100DF10408AC
S315020038708DF80410062041461A80FFF703FBC0E7C5
S31502003880DB68002BEED007225A70EBE73B46E4E7F3
S31502003890048A0022D0890022CB0711D500210246D4
S315020038A010B50446084600F0D9F9032810D019D8F5
S315020038B0022807D12046BDE810400021FFF7BEBA14
S315020038C000F052BA2046BDE810400021FEF732B899
S315020038D020460021FDF7D4FF2146BDE81040052011
S315020038E0FFF70CBCFF2805D12146BDE81040072092
S315020038F0FFF704BC10BD00BFCB0700D5704700F030
S3150200390065BA00BFCB0711D50021024610B50446A1
S31502003910084600F0D9F8022810D009D9FF2813D199
S315020039202146BDE810400720FFF7E8BB00F07ABA4F
S315020039302046BDE810400021FEF786B82046BDE8C5
S3150200394010400021FFF77ABA10BD00BF38B5EFF379
S3150200395003830E4A103B5BB252F823500C4CA878F4
S31502003960FFF71EF894F84030D80004EBC3035D60FD
S31502003970811CAA7818462144FEF7ACFD94F8403023
S31502003980013303F0070384F8403038BDE09000228B
S31502003990788C0022F8B5154604460F4601461046B5
S315020039A0FDF762FC21462846FDF7C4FF214628465C
S315020039B0FDF7FEFF134E21462846FEF745F821463F
S315020039C02846FDF7BDFC56F82430CBB10E4A2846F0
S315020039D052F8242021461A6156F824309F8456F85C
S315020039E02450FEF74DFA0022E88456F82430114698
S315020039F0DC8356F8240043689847002346F82430AF
S31502003A00F8BD00BF488900229889002291F820104B
S31502003A10114B01EB810101EB810103EB8103C1082B
S31502003A2001F0100100F00F004FF0010C09220843CB
S31502003A3005E0013A0CF1010C03F10A030AD0598997
S31502003A400129F6D1998901F01F018842F1D11FFAA5
S31502003A508CF07047FF207047808800220020704754
S31502003A6008B5FDF779FCC0F3C01008BD092800D9D6
S31502003A70704770B50446114B014653F8205028464C
S31502003A802E69FDF7F1FB0E4A0E4B42F82460AA6836
S31502003A902146284643F82420FEF740F821462846C8
S31502003AA0FEF700F820462A460021FFF7D3FD2146FD
S31502003AB02846BDE87040FFF7C1B900BF4889002219
S31502003AC098890022708900222DE9F04F092883B0D7
S31502003AD059D8154650EA010204460E4667D00A46F0
S31502003AE0002301462846FDF7D5FBFF284BD0214689
S31502003AF02846FDF777FA0746DFF8D08021462846A2
S31502003B00FFF75EF958F82430BB46BB4229D94FF07D
S31502003B10020921462846FFF749F9DFF8B4A02146F3
S31502003B2001902846FDF7A0FB2B46314638465AF847
S31502003B302420FEF737FE58F824304AF824009B4525
S31502003B4027D8DB1B48F8243021462846FDF7E6FF36
S31502003B50019B03F00303012B2FD0484603B0BDE8B7
S31502003B60F08F9FB267B1B7FBF0F300FB13739BB202
S31502003B7033B9B4FA84F94FEA59194FEA4909C8E741
S31502003B804FF00109C5E74FF0FF09484603B0BDE80B
S31502003B90F08F00233146284648F82430FDF700FE10
S31502003BA00304D1D431462846FDF730FECCE7202364
S31502003BB011462846FDF76EFB97E728462146FFF792
S31502003BC03DF9484603B0BDE8F08F00BF9889002250
S31502003BD070890022092800D9704770B51C4B04462B
S31502003BE053F82060014630463569FDF73DFB002358
S31502003BF01849194A41F82450B168304642F824104F
S31502003C0021461A46FDF774FB21463046FFF7D8F8DF
S31502003C104DB1B5FBF0F200FB125092B288B92146C3
S31502003C203046FDF77BFB21463046FFF707F9214672
S31502003C303046FDF75FFE21463046BDE87040FFF78D
S31502003C40AFB801322146304692B2FDF767FBEAE78A
S31502003C5048890022988900227089002209282DE9C4
S31502003C60F04739D8164604460A46884600230146D6
S31502003C703046FDF70FFBFF2805462DD0354F21466E
S31502003C803046FFF79DF857F82430C5F30B05AB42D3
S31502003C90AA4633D33FD025B3B5FBF0F300FB13534B
S31502003CA09BB2002B43D021463046FDF7DDFA4FF09A
S31502003CB001092846284D3346414655F82420FEF789
S31502003CC0D5FD45F8240057F824304846A3EB0A03ED
S31502003CD047F82430BDE8F0874FF0FF094846BDE8B3
S31502003CE0F08721463046FDF7BFFA4FF001094146FB
S31502003CF03046FDF7C5FD4FF0000AE4E7214630469F
S31502003D00FDF7B2FA57F8243047F824509DB24FF027
S31502003D100309AA46CDE79CB9B5FBF0F300FB1353A2
S31502003D209BB23BB94FF00209002DE0D0C1E74FF03C
S31502003D300209BEE721463046FDF796FAA146B8E7E4
S31502003D4021463046FDF790FA4FF00009002DCED0FD
S31502003D50AFE700BF9889002270890022092800D99E
S31502003D607047FFF717BE00BF2DE9F8430124074647
S31502003D700D462646DFF8509002E001340A2C1BD08D
S31502003D8006FA04F31D42F8D01FFA84F84146384673
S31502003D90FDF7C4FE59F82430002BEED041463846D2
S31502003DA0FFF722F810283A4608D00021404601348F
S31502003DB0FFF718FC0A2CE3D1BDE8F8834046002140
S31502003DC0FFF748FCD9E700BF488900222DE9F843EE
S31502003DD0012480460D462646DFF8449006FA04F38F
S31502003DE01D420AD059F82430A7B233B139464046AB
S31502003DF0FFF708F8B0F5404F04D001340A2CEDD194
S31502003E00BDE8F8834046FDF7A7FE0304424647BFD6
S31502003E100521384638460721FEF772FDEDE700BF59
S31502003E20488900222DE9F047012406460D46274619
S31502003E30DFF8C890DFF8C88007FA04F31D4227D0DE
S31502003E4059F8243023B396F820301FFA84FA03EB8C
S31502003E50830304EB430338F81330012B18D0514681
S31502003E603046FEF7A3FF810736D451463046FEF7A9
S31502003E7007F8420439D496F82030504603EB830300
S31502003E8004EB43033246012128F81370FFF782FD43
S31502003E900134062CD0D10127DFF8609007FA04F32B
S31502003EA01D420FD059F824301FFA84F853B1414607
S31502003EB03046FEF77BFF8307324608D54046062189
S31502003EC0FEF71EFD01340A2CE8D1BDE8F087012178
S31502003ED04046FFF75FFDF5E75046324606210134BC
S31502003EE0FEF70EFD062CA7D1D5E751463046013422
S31502003EF0FDF77CFD062C9FD1CDE700BF4889002245
S31502003F00588800220346407805280ED12DE9F04351
S31502003F1093F803C00CF0030CBCF1020F1ED0BCF1E7
S31502003F20030F04D00020BDE8F0830020704793F908
S31502003F30020093F802C00028F4DA022AF2D16420C1
S31502003F4091F82090374A00FB0920808F0028E9D19A
S31502003F504FF0060E48F21008704613E093F902403D
S31502003F6093F802C0002C49DB0A2ADBD1642491F8BB
S31502003F7020902C4A04FB0924648E002CD2D186465A
S31502003F804FF4854864279E880123002407FB09F91C
S31502003F900EEB8E0509EB450922F8093091F820301F
S31502003FA00CF00F0C07FB03F303EB450348EA0C087E
S31502003FB01344A3F8028091F820304FEA8E0C07FBD7
S31502003FC003F303EB45031344DE8091F8203007FB2D
S31502003FD003F303EB450313441C8191F82030012BB4
S31502003FE0A1D104281BD0052847F6484318BF002351
S31502003FF0F44402EB4C0CACF8683094E70A2A91D1EF
S31502004000642091F82090074A00FB0920008D0028C1
S3150200401088D14FF0040E44F210287046B2E747F6F4
S315020040200843E5E7808800224FF0640C0A2110B5A8
S31502004030092200241CFB001C00EB800E0EEB8E0EE8
S315020040400A4B4FEA8E0E33F80C10012908D103EB06
S315020040500E010128C1F80A4008BFA3F872400C619C
S31502004060013A03F10A03EED110BD00BF8088002297
S315020040702DE9F041012464270546244E02E001346D
S315020040800A2C2BD095F8203004EB840207FB03F3AD
S3150200409003EB4203F35A012BF1D100212846FDF727
S315020040A0C5FA1FFA84F800F00F00404518D0012126
S315020040B02846FDF7BBFA00F00F0040451ED002214C
S315020040C02846FDF7B3FA00F00F0040450FD04146EF
S315020040D028460134FCF7ACFF0A2CD3D1BDE8F081A7
S315020040E0002328461A461946FDF702F9DFE70023A0
S315020040F0022228461946FDF7FBF8E8E700230122CB
S3150200410028461946FDF7F4F8D9E700BF8088002251
S31502004110F8B50124642705460B4E02E001340A2C49
S3150200412011D095F8203004EB840207FB03F303EB6E
S315020041304203F35A012BF1D1A1B228460134FDF70D
S3150200414027F80A2CEDD1F8BD8088002238B504463E
S315020041500C4D00F0C1F8FFF77FF92046FEF784FE0A
S315020041606B6923B1084A01461288204698472046C1
S315020041700021FDF769FD2B682046D979BDE8384054
S31502004180FDF796BDD0890022C089002210B50446EB
S315020041900A20FEF701F92046FEF702FF94F82000F6
S315020041A0BDE81040FEF714BC2DE9F0410546FDF7C7
S315020041B0F9F895F82000FEF71FFC00231749184A64
S315020041C001246427174E0B80138002E001340A2C67
S315020041D018D095F8203004EB840107FB03F303EBB8
S315020041E04103F35A012BF1D11FFA84F82A4608211A
S315020041F04046FEF785FB013441462846FCF7C8FFD8
S315020042000A2CE6D1084BDB692BB12846BDE8F04102
S3150200421000221E211847BDE8F08100BF768C0022DD
S315020042205C8A002280880022D089002270B504466A
S3150200423090F82000FEF7F0FB94F82000FDF722FC30
S3150200424005462046FDF70CF96B0603D500F0030080
S31502004250012809D094F82000FEF702FC94F8200009
S31502004260BDE87040FEF7ECBB94F82000FEF7A8FB11
S3150200427000F034F8054B1B6A33B105492046BDE808
S31502004280704000220988184770BD00BFD0890022FD
S315020042905C8A0022FEF782BA70B506463046FDF702
S315020042A0F1FB05460A20FEF773F83046FDF7EAFBF6
S315020042B004460A20FEF76CF83046FDF7E3FB85EA72
S315020042C00403444023431B06E8D415F0800F0CBFB9
S315020042D04320402070BD00BF704700BF704700BF3B
S315020042E0F8B50024282705460E4640220021254817
S315020042F001F026FF4FF4FF720021234801F020FF50
S31502004300224A23491480234A0C80148022482349D6
S31502004310234A04800C8014802249234A2348244BD2
S315020043200C80148021460460342222481C605C60A2
S3150200433001F006FF21463A461F4801F001FF3A46C0
S3150200434021461E4801F0FCFE4FF00E3C1C491D4B57
S315020043503A46C1F800C0C1F804C0A1F808C01A481C
S3150200436021461C605C609C60DC601C6101F0E8FE1A
S31502004370164B174A1C80148031462846BDE8F84081
S31502004380FFF7C0B9188A0022788A0022108A002212
S315020043905A8A00220A8A00220E8A00220C8A0022E7
S315020043A0068A0022088A0022048A0022748A0022CF
S315020043B0C8890022D08900227089002298890022A9
S315020043C01E8F0022608A0022488900225C8A00220F
S315020043D0768C00222DE9F0410025174B174A1B88DF
S315020043E0158003F47F43B3F5106F0ED0B3F5306F2B
S315020043F019D1134B9B6AB3B1124A134914882A4640
S3150200440031F81410BDE8F0411847104E104F04461B
S315020044103088B7F80080FFF733F83388434502D077
S31502004420074B9B690BB9BDE8F0812A4620463988BD
S31502004430BDE8F041184700BF108A0022068A002212
S31502004440D08900220C8A0022788A00220E8A002253
S31502004450768C002270B59F4B04461B8803F47F427C
S31502004460B2F5006F65D017D8002A37D0B2F5C06F03
S3150200447015D113F01F0275D1974B1A88130A013B07
S31502004480D5B2062B0BD8DFE813F0AB008E00EB009B
S315020044900A000A00DD00BE00B2F5206F04D02046F5
S315020044A0BDE87040FEF77AB903F01F03012BF6D17F
S315020044B0894B1B88002BF2D1884B18880128EED134
S315020044C0874B1B88FE2BEAD8864A874932F8133077
S315020044D022460B70BDE87040FEF7A2BD7E4A1288E6
S315020044E0002ADCD17D4A1288022AD8D14FF0000276
S315020044F07E4D03F01F03012B2A8000F0CB80022B96
S3150200450000F0BA80002BCAD1754B1B88002BC6D18E
S31502004510FFF760F8764B28701B88012B04BF40F02A
S31502004520020028702246BDE8704002206F49FEF75D
S3150200453077BD6B49684A0888128803F01F0142EA70
S3150200454000030B439BB2002BA9D1644B18880128A8
S31502004550A5D1684B68491B8822460B70BDE870409E
S31502004560FEF75EBD012A9AD100225C495C4DB1F884
S3150200457000C06249B5F800E0CD6A1146564863F3B9
S315020045800F0206886EF30F015D4866F31F426CF355
S315020045901F4102604160002D6DD022462B46BDE8C8
S315020045A07040002118474E4B1B882B437FF477AF90
S315020045B0FEF75AFC514BC028D3E9021308BF19462D
S315020045C0464A8B781588CA7803EB022398B2A8422A
S315020045D022467FF67FAF2846BDE87040FEF720BD33
S315020045E03F4B1B882B437FF45AAF444A3B4B11681F
S315020045F018880B78224683423FF66CAFBDE87040BE
S315020046001846FEF70DBDFFF72BFA01287FF447AFD8
S31502004610334B1B882B437FF442AF2046FEF724FC24
S315020046200546364BC02DD3E9022108BF11462B4859
S31502004630CA788B78008803EB02239BB28342224618
S31502004640DCD947E7FFF70CFA01287FF428AF244BA1
S315020046501B882B437FF423AF284A204B5168C7E7B8
S31502004660264B93F83020AA427FF619AF1A691B4BE4
S3150200467052F82510BCE770BD194E3388190716D1BA
S3150200468090F82000FDF72CFB82077FF54BAF012344
S315020046902B7047E7FEF740F801287FF400AFFEF7DC
S315020046A00DFF0F4B1B888342FFF43CAFF7E6FEF784
S315020046B033F801287FF4F3AE21463088FFF7A6F9D6
S315020046C0FF2801463FF4EBAE2046FEF76FFB830759
S315020046D0DDD427E7108A00220E8A00220A8A0022E7
S315020046E00C8A0022788A0022BC8C0022C48C00220A
S315020046F05C8A0022768C0022C08C0022D08900229D
S31502004700C8890022FEF74AB82DE9F041AD4D0446AC
S315020047102B888AB003F47F42B2F5A06F00F0B9800D
S315020047201DD9B2F5106F7FD0B2F5306F09D1FDF702
S31502004730F3FF012805D12B8803F01F03012B00F09C
S31502004740BA802046FEF72AF89F4E3388012B2BD0DB
S3150200475021460020FEF7D2FC0AB0BDE8F081B2F590
S31502004760807F45D0B2F5407FEBD1984A1288002A65
S31502004770E7D113F01F0300F0DD80022BE1D1944B49
S31502004780944A1B881088002BDBD1020707D02146EA
S31502004790FFF73CF9FF28D4D02146FDF7F9FF0021A7
S315020047A02046FEF74BFBCFE7002393228DF803202A
S315020047B01A461F4686492D88098865F30F0361F359
S315020047C01F43039394F8203082488DF800307F4BC4
S315020047D000881B8860F30F0263F31F4269460820B4
S315020047E00297ADF804700492FEF74CFB3780AFE7F0
S315020047F0764A1288002AA4D113F01F0300F084809F
S31502004800022B9ED1724A734B12881B88002A98D1BA
S3150200481013F00F0640F097803146FEF715FB31463E
S315020048202046FEF70BFB8FE7DB068AD16A4B684F01
S315020048309A683B8852799A4201D0002B81D1654A07
S31502004840624B16881B881E43B6B2002E7FF479AFE0
S3150200485031462046FEF7F2FA3B88002B3FF474AF4E
S315020048605E4A12889A423FF46FAFFEF717FEFEF7D2
S3150200487025FE074630B1B0B200210136FEF748FEEA
S31502004880B742F8D12046FFF743FC2046FFF7F0FB7C
S315020048905AE7504A4D491288098803F01F030A4312
S315020048A013439BB2002B7FF44CAF494B1B887F2BE3
S315020048B07FF675AF45E7FEF701FE464F3B88984205
S315020048C0FFF43FAF414A1688002E7FF43AAF1846EE
S315020048D0FEF7FAFD3E4B1B889842FFF432AF38884A
S315020048E0DFF81081DBB228F8103031462046FEF799
S315020048F0A5FAFEF7D3FD388838F81010FEF708FE41
S315020049002046FFF7B5FB1FE7314B1B88012B7FF4CF
S3150200491018AF304B1E88002E7FF413AFFEF74CFE05
S3150200492001287FF40EAF2E4B314620461E80FEF73D
S3150200493085FA09E7264B1B88012B5DD0022B2BD06B
S31502004940FFF7A8FC00E701461846FFF75FF8FF28C5
S3150200495006463FF4F6AE01462046FEF727FA012840
S31502004960314620465AD0FEF76FFA31462046FDF709
S3150200497017FB00212046FEF761FA1A4B33F8162080
S31502004980012A7FF4E1AE0022174920460F6823F878
S3150200499016201146B847D7E6FEF766FAC0287FF416
S315020049A0D0AE0C4B1B88A3F5804211047FF5C9AE2D
S315020049B001260E490E4A0B80204600211680FEF77C
S315020049C03DFAC1E6108A0022068A00220A8A0022DD
S315020049D00E8A00220C8A0022D0890022768C0022BE
S315020049E05C8A0022608A0022748A00225A8A002285
S315020049F0588A0022788A00220E4B1E88002E7FF4E7
S31502004A00A0AEFEF7D9FD012803467FF49AAE0A4A04
S31502004A10314620461380FEF711FA95E6FCF724FC90
S31502004A2031462046FDF7BCFA31462046FEF706FA25
S31502004A309FE700BF0C8A00225C8A0022F0B5294E4D
S31502004A40044633888BB003F47F43B3F5006F06D078
S31502004A5013D9B3F5206F02D0B3F5406F12D1224DB0
S31502004A6000212046FEF7EAF92B88012B11D02146B8
S31502004A700020FEF743FB0BB0F0BD002BEFD0B3F5E1
S31502004A80C06FECD0184D2046FDF788FE2B88012B0F
S31502004A90EDD1002393228DF803201A461F461349AF
S31502004AA03688098866F30F0361F31F43039394F86C
S31502004AB020300F488DF800300E4B00881B8860F3BB
S31502004AC00F0263F31F426946082004920297ADF86B
S31502004AD00470FEF7D7F9214600202F80FEF70EFB61
S31502004AE00BB0F0BD108A0022068A00220E8A00222E
S31502004AF00C8A00220A8A0022F0B5224E0446338826
S31502004B008BB003F47F43B3F5E06F0BD01E4DFDF778
S31502004B1045FE2B88012B0CD021460020FEF7EEFA2B
S31502004B200BB0F0BD184D0021FEF788F92B88012B3A
S31502004B30F2D1002393228DF803201A461F46134909
S31502004B403688098866F30F0361F31F43039394F8CB
S31502004B5020300F488DF800300E4B00881B8860F31A
S31502004B600F0263F31F426946082004920297ADF8CA
S31502004B700470FEF787F9214600202F80FEF7BEFA61
S31502004B800BB0F0BD108A0022068A00220E8A00228D
S31502004B900C8A00220A8A0022024630B50C468BB0E5
S31502004BA05168006804AB03C320460021FEF746F9AC
S31502004BB00025932394F8202001A908208DF80420CB
S31502004BC08DF807300395ADF80850FEF75BF9044BF4
S31502004BD0214628461D80FEF791FA0BB030BD00BF74
S31502004BE0068A0022024630B50C468BB05168006830
S31502004BF004AB03C320460021FEF720F900259322C9
S31502004C000C4B94F820C01968BDF8163008205B1AC0
S31502004C1001A98DF804C003938DF80720ADF808505A
S31502004C20FEF730F9044B214628461D80FEF766FA48
S31502004C300BB030BD98890022068A002210B50346C1
S31502004C4000888CB000F06000202801D0402806D1F0
S31502004C5005295FD8DFE801F02F19501957354FF0B3
S31502004C60930C00241868596892F8202006AB8DF838
S31502004C700FC003C3072003A98DF80C200594ADF8D5
S31502004C801040FEF7FFF80CB010BD00244FF0930C55
S31502004C901868596892F8202006AB8DF80C2003C3D9
S31502004CA0072003A90594ADF810408DF80FC0FEF752
S31502004CB0E9F80CB010BD00231A491B4A0B80138079
S31502004CC0E1E700244FF0930C1868596806AB03C35A
S31502004CD092F8203003A9072001928DF80C30059432
S31502004CE0ADF810408DF80FC0FEF7CCF8019A2046B9
S31502004CF01146FEF703FAC6E7114618460CB0BDE8A0
S31502004D001040FFF749BF114618460CB0BDE81040E7
S31502004D10FFF768BF114607200CB0BDE81040FEF74A
S31502004D20EDB900BF088A0022068A00220E2370B55A
S31502004D30154C0B700D460646FEF7FEF894F801C0B8
S31502004D40237863451DD0B6460CEBCC0C04EB8C0CD9
S31502004D500CF10C0CBCE80F00AEE80F00637823449C
S31502004D609E78BCE80F00AEE80F00DCF80030CEF803
S31502004D7000302E7063780133DBB2092B88BF002323
S31502004D806370002070BD00BF1C8F0022F0B58A78C8
S31502004D903D4F0270CB783D4E03F07F03C3700B6A22
S31502004DA08FB08361CB6947F822300378F25C012A1F
S31502004DB055D00A780D46012A044603D00221344A08
S31502004DC022F8131031787378194342D000214FF03C
S31502004DD0010E23782F4FDFF8C8C047F8231006F8D4
S31502004DE003E023784FF40C722B482CF8131001F0D1
S31502004DF0A7F92B78012B02D100200FB0F0BD207845
S31502004E00FDF702FA0028F8D129462046FFF768FA8C
S31502004E1029462078FDF720FA6B78022B23D02078DA
S31502004E20FDF756FE2078FFF737FA402822D02B7876
S31502004E30012BE1D0227857F8223043F0010347F8DC
S31502004E402230227857F8223043F0020347F8223004
S31502004E50D2E74FF4BA72114801F072F9B6E740F29E
S31502004E60DD500FB0F0BD237868468DF82030FCF790
S31502004E70B1FAD4E72078FCF789FA0A20FDF78CFA12
S31502004E802078FDF7A5FDD2E7108F0022C88C0022FC
S31502004E90D48C0022CC8C0022D88C00221C8F0022BB
S31502004EA0188F002270B506230C46294A0178294E2E
S31502004EB032F81110A37003788EB056F8231071B32E
S31502004EC032F813208DF8203093B2012B02D1002044
S31502004ED00EB070BD0023054623706846FDF7C4FF79
S31502004EE0802827D0A0F1C000B0FA80F04009400027
S31502004EF060702878FCF7C6FD00F07003202B1BD0EB
S31502004F0011D9302B1BD02F2B10D9602B04D01CD8D3
S31502004F1000F06000402809D10423A37006E040F2A5
S31502004F20DC500EB070BD6BB10123A3700A4B1B8817
S31502004F30E370CCE70120DBE70223A370F6E7032345
S31502004F40A370F3E70623A370F0E7702BE4D0EDE736
S31502004F50D48C0022CC8C0022C0890022F0B50446F3
S31502004F601646124F027883B037F812000D4680B209
S31502004F70022804BF03F07F03E3702046627801A98A
S31502004F80FFF790FF9DF80630032B03D040F2DC506A
S31502004F9003B0F0BD324629462046FDF795FE0028AD
S31502004FA0F6D0D528F2D140F2DD50F1E7D48C0022BA
S31502004FB0F0B504461646124F027883B037F812004F
S31502004FC00D4680B2022804BF03F07F03E370204639
S31502004FD0627801A9FFF766FF9DF80630032B03D01E
S31502004FE040F2DC5003B0F0BD324629462046FDF7BA
S31502004FF095FE0028F6D0D528F2D140F2DD50F1E731
S31502005000D48C0022F0B583B00E46174601A9427829
S315020050100546FFF747FF60B904463A463146284639
S31502005020FDF7E4FDD52809D0FF2802D0204603B0BB
S31502005030F0BD40F2DC54204603B0F0BD40F2DD5430
S31502005040204603B0F0BD00BFF0B583B00E4617464A
S3150200505001A942780546FFF725FF60B904463A469C
S3150200506031462846FDF7EAFDD52809D0FF2802D0A9
S31502005070204603B0F0BD40F2DC54204603B0F0BD3A
S3150200508040F2DD54204603B0F0BD00BF70B582B0D9
S315020050900E46427801A90546FFF704FF40B90446C9
S315020050A031462878AE80FDF783FD204602B070BDFA
S315020050B040F2DC54204602B070BD00BF002001233E
S315020050C08242CAB203FA02F39AB24FEA034308BF14
S315020050D01A460B0A5B0103F1804303F580039A60CB
S315020050E0704700BF2DE9F84F0388DBB14FF0000A85
S315020050F080464FF00109DFF8D4B00024314D4FEA63
S31502005100CA07D8F8043035F8022BD9198988914292
S315020051100AD00134032CF4D1B8F800300AF1010A9E
S315020051205345EAD8BDE8F88FDB5909FA04F603F0CD
S31502005130B853B3F1807F244BF6B293F84C2C12D0BD
S31502005140324230D104F120021BF81230DB09E0D0E2
S315020051501BF81230012123F08003C8200BF812300D
S3150200516000F0B0FDD5E7324210D004F120021BF860
S315020051701230DB09CDD11BF81230012143F0800336
S31502005180C8200BF8123000F09DFDC2E7012000F0A6
S3150200519041FE0D4B012093F84C2C324383F84C2CE4
S315020051A000F008FEE1E7012000F034FE064B012084
S315020051B093F84C2C22EA060283F84C2C00F0FAFDF6
S315020051C0C0E700BF5469000200E001400020204011
S315020051D0F8B50646FFF786FFEFF31082012383F345
S315020051E01088234F3B681BB9402022490B7508756E
S315020051F03B6801333B6082F31088338800211BB37E
S315020052001D4D08E01B01134445F823403288013145
S315020052108BB29A4218D9736853F8314003EBC10234
S315020052209288E0034FEA1223D2B2EBD502EB0310C7
S3150200523055F820E024F4803C2EF4803E45F820E028
S315020052401B0145F820C0DEE7EFF31082012383F34A
S3150200525010883B6813B13B68013B3B603B681BB956
S31502005260802004490B75087582F31088F8BD00BFCB
S31502005270D8900022000D40400008404008B5034B7C
S3150200528003600846FFF7A4FF002008BD54524F50A2
S3150200529030B48568047B05F10C03002C05F1080285
S315020052A018BF1A46117801F001011378C3F34003BF
S315020052B08B42FAD143681978012904D0F12313707D
S315020052C0002030BC704701691B7C094840F8231056
S315020052D001392CB1F12329601370002030BC7047CC
S315020052E0F12389B229801370002030BC704700BFB9
S315020052F0909000222DE9F0410027416007730B7C54
S31502005300474D044605EB03250E468560EFF31088EC
S31502005310012181F31088434A337CD068C3F1050327
S3150200532001FA03F320EA0303D360D368962000F060
S31502005330C9FC88F310882F722B7AC3F340029B07AD
S315020053401146F9D4AA72F069227BA368002A07786B
S31502005350C27803F10C0C357A03F10803007918BF01
S31502005360634602F00702002F4CD1002D51D118716D
S31502005370002098715A709D70736862682361107C70
S315020053802949227B41F82030013B002A36D0A26807
S31502005390136096F91230002B26DB727C03F1604112
S315020053A012012248D2B201F5614181F80023204A56
S315020053B040F8234003F5C65152F8210020F480300C
S315020053C042F8210052F82120BFF35F8F01215A09CA
S315020053D0920003F01F0302F1604202F5614201FAF4
S315020053E003F3C2F88031136000207369114A6361C6
S315020053F0B3692260C4E90603BDE8F081A2689BB2E4
S315020054001380C6E7502F06BF0D4642F050023A43BC
S31502005410ADE785F0020142EA01123D46D2B2A6E7A5
S31502005420001022400030204090900022E09000229E
S315020054300060004054474100F0B585B0EFF30383A6
S31502005440103B204A5BB203F5C65152F8210020F404
S31502005450803042F8210052F821201B4A52F823409C
S31502005460237BA56853B30C3562682B781278DBB2BE
S31502005470012A04D1F42203F0F0032A702B70626928
S31502005480B2B1A66901AFDEB196E8070087E8070068
S315020054909B0644BF00233371E36930463360636978
S315020054A09847A3691BB197E8070083E807002B78A2
S315020054B0DBB203F00F032B7005B0F0BD0835D3E75E
S315020054C03E46E5E700600040E090002203461A6887
S315020054D09B8A00201380704703461B6800201B88A6
S315020054E0C3F3C0330B70704703461B68103133F8A1
